:020000040800F2
:1000000000000220052C0008552C0008552C000883
:10001000552C0008552C0008552C00080000000045
:10002000000000000000000000000000552C000847
:10003000552C000800000000552C0008AD2B0008CE
:10004000552C0008552C0008552C0008552C00088C
:10005000552C0008552C0008552C0008552C00087C
:10006000552C0008552C0008552C0008552C00086C
:10007000552C0008552C0008552C0008552C00085C
:10008000552C0008552C0008552C0008552C00084C
:10009000552C0008552C0008552C0008552C00083C
:1000A000552C0008552C0008552C0008552C00082C
:1000B000552C0008552C0008552C0008552C00081C
:1000C000552C0008552C0008552C0008552C00080C
:1000D000552C0008552C0008552C0008552C0008FC
:1000E000552C0008552C0008552C0008552C0008EC
:1000F000552C0008552C0008552C0008552C0008DC
:10010000552C0008552C0008552C0008552C0008CB
:10011000552C0008552C0008552C0008552C0008BB
:10012000552C0008552C0008552C0008552C0008AB
:10013000552C0008552C0008552C0008552C00089B
:10014000552C0008552C0008552C0008552C00088B
:10015000552C0008552C0008552C0008552C00087B
:10016000552C0008552C0008552C0008552C00086B
:10017000552C0008552C0008552C000800000000E4
:08018000552C0008552C000865
:1001900010B5054C237833B9044B13B10448AFF3C1
:1001A00000800123237010BD7000002000000000BB
:1001B000C434000808B5034B1BB103490348AFF32F
:1001C000008008BD0000000074000020C434000856
:1001D00081F0004102E000BF83F0004330B54FEAF8
:1001E00041044FEA430594EA050F08BF90EA020F65
:1001F0001FBF54EA000C55EA020C7FEA645C7FEAF8
:10020000655C00F0E2804FEA5454D4EB5555B8BF1A
:100210006D420CDD2C4480EA020281EA030382EA8B
:10022000000083EA010180EA020281EA0303362D1D
:1002300088BF30BD11F0004F4FEA01314FF4801CF0
:100240004CEA113102D0404261EB410113F0004F02
:100250004FEA03334CEA133302D0524263EB4303B9
:1002600094EA050F00F0A780A4F10104D5F1200E57
:100270000DDB02FA0EFC22FA05F2801841F10001B2
:1002800003FA0EF2801843FA05F359410EE0A5F186
:1002900020050EF1200E012A03FA0EFC28BF4CF0B7
:1002A000020C43FA05F3C01851EBE37101F000456D
:1002B00007D54FF0000EDCF1000C7EEB00006EEB7A
:1002C0000101B1F5801F1BD3B1F5001F0CD3490804
:1002D0005FEA30004FEA3C0C04F101044FEA44525B
:1002E00012F5800F80F09A80BCF1004F08BF5FEAE2
:1002F000500C50F1000041EB045141EA050130BDC2
:100300005FEA4C0C404141EB010111F4801FA4F164
:100310000104E9D191F0000F04BF01460020B1FAB9
:1003200081F308BF2033A3F10B03B3F120020CDAF1
:100330000C3208DD02F1140CC2F10C0201FA0CF0CF
:1003400021FA02F10CE002F11402D8BFC2F1200C34
:1003500001FA02F120FA0CFCDCBF41EA0C019040EA
:10036000E41AA2BF01EB0451294330BD6FEA040433
:100370001F3C1CDA0C340EDC04F11404C4F120021E
:1003800020FA04F001FA02F340EA030021FA04F330
:1003900045EA030130BDC4F10C04C4F1200220FA87
:1003A00002F001FA04F340EA0300294630BD21FAC5
:1003B00004F0294630BD94F0000F83F4801306BF8B
:1003C00081F480110134013D4EE77FEA645C18BF7F
:1003D0007FEA655C29D094EA050F08BF90EA020F16
:1003E00005D054EA000C04BF1946104630BD91EA0E
:1003F000030F1EBF0021002030BD5FEA545C05D111
:100400004000494128BF41F0004130BD14F580044F
:100410003CBF01F5801130BD01F0004545F0FE41C3
:1004200041F470014FF0000030BD7FEA645C1ABFF8
:10043000194610467FEA655C1CBF0B46024650EA2F
:10044000013406BF52EA033591EA030F41F400215B
:1004500030BD00BF90F0000F04BF0021704730B5E1
:100460004FF4806404F132044FF000054FF00001B6
:1004700050E700BF90F0000F04BF0021704730B577
:100480004FF4806404F1320410F0004548BF40424C
:100490004FF000013EE700BF42004FEAE2014FEAA1
:1004A00031014FEA02701FBF12F07F4393F07F4F7C
:1004B00081F06051704732F07F4208BF704793F07F
:1004C0007F4F04BF41F40021704730B54FF4607492
:1004D00001F0004521F000411CE700BF50EA010295
:1004E00008BF704730B54FF000050AE050EA01023E
:1004F00008BF704730B511F0004502D5404261EBAE
:1005000041014FF4806404F132045FEA915C3FF4EE
:10051000D8AE4FF003025FEADC0C18BF03325FEA8B
:10052000DC0C18BF033202EBDC02C2F1200300FA3C
:1005300003FC20FA02F001FA03FE40EA0E0021FA61
:1005400002F11444BDE600BF70B54FF0FF0C4CF44F
:10055000E06C1CEA11541DBF1CEA135594EA0C0F01
:1005600095EA0C0F00F0DEF82C4481EA030621EA3C
:100570004C5123EA4C5350EA013518BF52EA033577
:1005800041F4801143F4801338D0A0FB02CE4FF029
:100590000005E1FB02E506F00042E0FB03E54FF059
:1005A0000006E1FB03569CF0000F18BF4EF0010E51
:1005B000A4F1FF04B6F5007F64F5407404D25FEA4D
:1005C0004E0E6D4146EB060642EAC62141EA555100
:1005D0004FEAC52040EA5E504FEACE2EB4F1FD0C42
:1005E00088BFBCF5E06F1ED8BEF1004F08BF5FEAC0
:1005F000500E50F1000041EB045170BD06F0004672
:1006000046EA010140EA020081EA0301B4EB5C041E
:10061000C2BFD4EB0C0541EA045170BD41F4801116
:100620004FF0000E013C00F3AB8014F1360FDEBF3B
:10063000002001F0004170BDC4F10004203C35DA17
:100640000C341BDC04F11404C4F1200500FA05F39A
:1006500020FA04F001FA05F240EA020001F000423B
:1006600021F0004110EBD37021FA04F642EB0601B1
:100670005EEA430E08BF20EAD37070BDC4F10C04DB
:10068000C4F1200500FA04F320FA05F001FA04F29F
:1006900040EA020001F0004110EBD37041F100018B
:1006A0005EEA430E08BF20EAD37070BDC4F1200596
:1006B00000FA05F24EEA020E20FA04F301FA05F2FE
:1006C00043EA020321FA04F001F0004121FA04F2A6
:1006D00020EA020000EBD3705EEA430E08BF20EA76
:1006E000D37070BD94F0000F0FD101F000464000B0
:1006F00041EB010111F4801F08BF013CF7D041EA32
:10070000060195F0000F18BF704703F00046520035
:1007100043EB030313F4801F08BF013DF7D043EA06
:100720000603704794EA0C0F0CEA135518BF95EABC
:100730000C0F0CD050EA410618BF52EA4306D1D143
:1007400081EA030101F000414FF0000070BD50EA62
:10075000410606BF1046194652EA430619D094EAEC
:100760000C0F02D150EA013613D195EA0C0F05D1D6
:1007700052EA03361CBF104619460AD181EA03012A
:1007800001F0004141F0FE4141F470014FF00000E2
:1007900070BD41F0FE4141F4780170BD70B54FF07D
:1007A000FF0C4CF4E06C1CEA11541DBF1CEA1355FD
:1007B00094EA0C0F95EA0C0F00F0A7F8A4EB0504DF
:1007C00081EA030E52EA03354FEA013100F08880D6
:1007D0004FEA03334FF0805545EA131343EA12639F
:1007E0004FEA022245EA111545EA10654FEA002654
:1007F0000EF000419D4208BF964244F1FD0404F50D
:10080000407402D25B084FEA3202B61A65EB030568
:100810005B084FEA32024FF480104FF4002CB6EB25
:10082000020E75EB030E22BFB61A754640EA0C00A5
:100830005B084FEA3202B6EB020E75EB030E22BFE5
:10084000B61A754640EA5C005B084FEA3202B6EB26
:10085000020E75EB030E22BFB61A754640EA9C00E5
:100860005B084FEA3202B6EB020E75EB030E22BFB5
:10087000B61A754640EADC0055EA060E18D04FEA73
:10088000051545EA16754FEA06164FEAC30343EA13
:1008900052734FEAC2025FEA1C1CC0D111F4801FE0
:1008A0000BD141EA00014FF000004FF0004CB6E7D9
:1008B00011F4801F04BF01430020B4F1FD0C88BF78
:1008C000BCF5E06F3FF6AFAEB5EB030C04BFB6EB83
:1008D000020C5FEA500C50F1000041EB045170BD76
:1008E0000EF0004E4EEA113114EB5C04C2BFD4EBA3
:1008F0000C0541EA045170BD41F480114FF0000E27
:10090000013C90E645EA060E8DE60CEA135594EAA2
:100910000C0F08BF95EA0C0F3FF43BAF94EA0C0FA5
:100920000AD150EA01347FF434AF95EA0C0F7FF41A
:1009300025AF104619462CE795EA0C0F06D152EA6E
:1009400003353FF4FDAE1046194622E750EA410652
:1009500018BF52EA43067FF4C5AE50EA41047FF463
:100960000DAF52EA43057FF4EBAE12E74A0011D215
:1009700012F5001211D20DD56FF47873B3EB6252F9
:100980000ED44FEAC12343F0004343EA505323FA05
:1009900002F070474FF00000704750EA013002D17A
:1009A0004FF0FF3070474FF00000704753B94AB91D
:1009B000002908BF00281CBF4FF0FF314FF0FF3067
:1009C00000F072B9ADF1080C6DE904CE00F006F844
:1009D000DDF804E0DDE9022304B070472DE9F047BB
:1009E000089E04468846002B4BD18A42154667D99B
:1009F000B2FA82F24AB1C2F1200701FA02F320FAF8
:100A000007F7954047EA030894404FEA154E230C38
:100A1000B8FBFEF71FFA85FC0EFB178843EA084374
:100A200007FB0CF1994209D9EB1807F1FF3080F070
:100A30001B81994240F21881023F2B445B1AA4B2F9
:100A4000B3FBFEF00EFB103344EA034400FB0CFC46
:100A5000A44509D92C1900F1FF3380F00781A44582
:100A600040F2048102382C4440EA0740A4EB0C0415
:100A700000271EB1D4400023C6E900433946BDE833
:100A8000F0878B4209D9002E00F0EB800027C6E9E1
:100A9000000138463946BDE8F087B3FA83F7002FE6
:100AA00047D18B4202D3824200F2FA80841A61EB72
:100AB000030301209846002EE0D0C6E90048DDE798
:100AC00002B9FFDEB2FA82F2002A40F08F80491BA1
:100AD0004FEA154E1FFA85F80127B1FBFEFC230CE7
:100AE0000EFB1C1143EA014308FB0CF1994207D9A4
:100AF000EB180CF1FF3002D2994200F2CD8084460F
:100B0000591AA3B2B1FBFEF00EFB101443EA0444E1
:100B100008FB00F8A04507D92C1900F1FF3302D2D9
:100B2000A04500F2B6801846A4EB080440EA0C4049
:100B30009FE7C7F1200CBB4022FA0CFE4EEA030EE1
:100B400001FA07F420FA0CF521FA0CF34FEA1E48DB
:100B50002543B3FBF8F92C0C08FB19331FFA8EFA66
:100B600044EA034309FB0AF49C4202FA07F200FA42
:100B700007F10BD91EEB030309F1FF3080F08780EA
:100B80009C4240F28480A9F1020973441B1BADB260
:100B9000B3FBF8F008FB103345EA034400FB0AFA04
:100BA000A24508D91EEB040400F1FF336BD2A24525
:100BB00069D90238744440EA0940A0FB0289A4EBD9
:100BC0000A044C45C2464B4654D351D0002E69D03E
:100BD000B1EB0A0564EB030404FA0CFCFD40FC4095
:100BE0004CEA0505C6E90054002747E7C2F1200397
:100BF00020FA03F7954001FA02F021FA03F34FEAD5
:100C0000154E3843010CB3FBFEF71FFA85F80EFBB7
:100C1000173341EA034107FB08F38B4204FA02F45D
:100C200007D9691807F1FF3C2FD28B422DD9023F1B
:100C30002944CB1A81B2B3FBFEF00EFB103341EA1C
:100C4000034100FB08F38B4207D9691800F1FF3C10
:100C500017D28B4215D902382944C91A40EA0747EE
:100C60003BE73746304609E70746E7E61846FBE626
:100C70004145ABD2B8EB020A69EB0E0201381346CC
:100C8000A4E76046E9E7184695E76746D1E781465D
:100C90007CE702382C4447E7ACF1020C2B442FE7E9
:100CA000384608E73746E9E6704700BF034613F8C1
:100CB000012B002AFBD1181A0138704700000000F0
:100CC00001F0FF01102A2BDB10F0070F08D010F8FD
:100CD000013B013A8B422DD010F0070F42B3F6D101
:100CE000F0B441EA012141EA014122F007047FF01A
:100CF00000070023F0E80256083C85EA010586EA71
:100D0000010685FA47F5A3FA87F586FA47F6A5FAAC
:100D100087F68EB9EED1F0BC01F0FF0102F00702B8
:100D200032B110F8013B013A83EA010313B1F8D163
:100D30000020704701387047002D06BF3546033844
:100D4000073815F0010F07D1013015F4807F02BF7D
:100D5000013015F4C03F0130F0BC0138704700BFCE
:100D600010B504460E4B18784FF47A73B3FBF0F3CA
:100D70000C4A1068B0FBF3F000F09CF868B90F2C37
:100D800001D901200AE0002221464FF0FF3000F097
:100D90005DF8034B5C60002000E0012010BD00BF47
:100DA000000000200800002008B50B4B1A6842F430
:100DB00000721A601A6842F480621A601A6842F47B
:100DC00080721A60032000F02FF80020FFF7C8FFA0
:100DD00001F04EFE002008BD003C0240034A1168AD
:100DE000034B1B780B441360704700BF9800002032
:100DF00000000020014B1868704700BF98000020D9
:100E000038B50446FFF7F6FF0546B4F1FF3F02D0C0
:100E1000044B1B781C44FFF7EDFF401BA042FAD3A4
:100E200038BD00BF00000020074AD36823F4E06308
:100E30001B041B0C000200F4E060184340F0BF608C
:100E400040F40030D060704700ED00E030B4174B44
:100E5000DB68C3F30223C3F10704042C28BF042476
:100E60001D1D062D18D9033B4FF0FF3505FA04F47C
:100E700021EA0401994005FA03F322EA0303194326
:100E800000280BDB0901C9B200F1604000F56140A8
:100E900080F8001330BC70470023E5E700F00F0036
:100EA0000901C9B2024B1954F4E700BF00ED00E09C
:100EB00014ED00E00138B0F1807F0AD2064B586093
:100EC000064AF02182F823100020986007221A6059
:100ED00070470120704700BF10E000E000ED00E027
:100EE000042805D0054A136823F0040313607047F3
:100EF000024A136843F004031360704710E000E0F7
:100F0000704708B5FFF7FCFF08BD000000230F2B5A
:100F100000F2D780F0B482B039E0072200E000226E
:100F2000B2403A430234674E46F82420664A1468B9
:100F3000EA4302EA04064F6817F4803F01D045EA0D
:100F40000406614C2660646802EA04064F6817F4E0
:100F5000003F01D045EA04065B4C6660A46802EAE3
:100F600004064F6817F4801F01D045EA0406564C6A
:100F7000A660E46822404E6816F4001F01D045EADE
:100F80000402514CE26001330F2B00F297800122E2
:100F90009A400C6804EA0205AA42F4D14C68022C7B
:100FA00001D0122C10D1DE08083650F826C003F00C
:100FB0000704A7000F24BC402CEA040C0C69BC40B9
:100FC00044EA0C0440F8264004685F000326BE4053
:100FD000F64306EA040C4C6804F00304BC4044EAFF
:100FE0000C0404604C6804F1FF3CBCF1010F03D910
:100FF000112C01D0122C10D1846806EA040CCC68A4
:10100000BC4044EA0C048460446824EA02024C6850
:10101000C4F300149C4014434460C26816408A68BC
:10102000BA403243C2604A6812F0805FABD00022FF
:101030000192264A546C44F480445464526C02F485
:1010400080420192019A9C08A61C1E4A52F8267002
:1010500003F0030296000F22B24027EA02071C4A5F
:1010600090423FF45CAF02F5806290421AD002F5E4
:101070008062904218D002F58062904216D002F54C
:101080008062904214D002F58062904212D002F544
:101090008062904210D002F5806290423FF43DAFF2
:1010A00008223DE701223BE7022239E7032237E726
:1010B000042235E7052233E7062231E702B0F0BC0F
:1010C0007047704700380140003C01400038024042
:1010D000000002400369194201D10020704701203D
:1010E000704712B9090481617047816170470368D4
:1010F0005A6912F4806F0DD06FF480625A61042334
:10110000036400230363202280F83D2080F83C30F4
:101110000120704700207047F8B506460C46174678
:101120001D461EE02DB1FFF765FE069BC01AA842C2
:1011300017D900233363202286F83D2086F83E30FD
:1011400086F83C3003201AE033685B6924EA030325
:101150009BB2B3FA83F35B099F420FD1B5F1FF3F16
:10116000E0D1C4F30743012BEED033689B6924EA36
:1011700003039BB2B3FA83F35B09EDE70020F8BDEC
:10118000F8B504460D4616461F4632E01A6842F48A
:1011900000721A6023686FF480625A61042323642A
:1011A00000232363202284F83D2084F83C30012072
:1011B0002DE026B1FFF71EFEC01BB04219D9002357
:1011C0002363202284F83D2084F83C3003201EE075
:1011D00023685B6925EA03039BB2003318BF012330
:1011E000A3B123685A6912F4806FCFD1B6F1FF3FE3
:1011F000DFD1C5F30743012BEAD023689B6925EAB9
:1012000003039BB2003318BF0123E9E70020F8BDB8
:10121000F0B583B004460D4616461F46C36A042B3C
:101220000DD0012B0BD013F5803F08D0036B122B90
:101230000AD10268136843F48073136004E02268E3
:10124000136843F4807313600097334600224FF015
:1012500001112046FFF760FF58BB2369B3F5804FAB
:1012600010D1236805F0FE051D613B463246154945
:101270002046FFF785FF0346E0B1236C042B1ED107
:10128000012317E0EB11226803F0060343F0F0039B
:1012900013613B4632460C492046FFF771FF20B1EF
:1012A000236C042B09D1012304E02368EDB21D61F6
:1012B000DBE70323184603B0F0BD0323FAE703235B
:1012C000F8E700BF02000100080001002DE9F0412D
:1012D00084B004460D4616461F46C26A01680B6874
:1012E00043F480630B60042A0DD0012A0BD012F561
:1012F000803F08D0036B112B0AD10268136843F4B6
:101300008073136004E02268136843F480731360F1
:101310000097334600224FF001112046FFF7FCFEF4
:10132000002852D12369B3F5804F12D1236845F0CC
:101330000105EDB21D613B4632462A492046FFF7C2
:101340001FFF0346002841D0236C042B48D1012302
:101350003CE04FEAE51808F00608236848F0F00280
:101360001A613B46324620492046FFF709FF20B16B
:10137000236C042B2ED1012328E02368EDB21D61DC
:101380003B46324617492046FFF7FAFE20B1236C50
:10139000042B21D1012319E000220392236859690B
:1013A0000391996903910399196841F48071196057
:1013B000009733464FF001112046FFF7ADFE68B9A4
:1013C000226848F0F1031361B5E70323184604B01F
:1013D000BDE8F0810323F9E70323F7E70323F5E7EB
:1013E0000323F3E7020001000800010070B5044682
:1013F0000D46164623685B6913F0800F19D120460D
:10140000FFF775FEB8B9B5F1FF3FF3D025B1FFF78F
:10141000F1FC801BA842EDD9236C43F02003236428
:1014200000232363202284F83D2084F83C300320ED
:1014300000E0002070BD0120FCE770B504460D46B9
:10144000164623685B6913F0040F19D12046FFF795
:101450004EFEB8B9B5F1FF3FF3D025B1FFF7CAFC96
:10146000801BA842EDD9236C43F0200323640023A2
:101470002363202284F83D2084F83C30032000E0E0
:10148000002070BD0120FCE770B505460C461646ED
:101490002B685A6912F0400F22D15A6912F0100FCE
:1014A00011D124B1FFF7A6FC801BA042F0D92B6C10
:1014B00043F020032B64202385F83D30002385F87A
:1014C0003C30032070BD6FF010025A6100232B6482
:1014D0002B63202285F83D2085F83C300120F1E780
:1014E0000020EFE7002800F0828010B5044690F855
:1014F0003D30002B41D0242384F83D30226813680E
:1015000023F00103136000F09BFD3A4BA3FB002383
:101510009B0C226853606168374A914232D801338C
:10152000226813626368344A934235D85B00B0FB8B
:10153000F3F0C0F30B03032B00D804202368D86119
:10154000E369216A22680B4313602369E16822681A
:101550000B4393606369A16922680B43D3602268DF
:10156000136843F00103136000202064202384F8F3
:101570003D30206384F83E0010BD80F83C3001F01F
:10158000C1FAB8E74FF4967202FB03F31B4AA2FBC1
:1015900003239B090133C3E7A16889B903EB430225
:1015A000B0FBF2F2C2F30B02B2FA82F25209E2B9D4
:1015B00091B903EB4303B0FBF3F040F40040BDE707
:1015C00003EB830202EB8202B0FBF2F2C2F30B02E6
:1015D000B2FA82F25209EAE703EB830303EB8303D7
:1015E000B0FBF3F040F44040A8E70120A6E701205B
:1015F000704700BF83DE1B43A0860100D34D6210FD
:101600002DE9F04184B004460E4690461F46FFF790
:10161000F1FB94F83D30DBB2202B04D0022630469B
:1016200004B0BDE8F0810546009019230122544919
:101630002046FFF771FD002840F0998094F83C3077
:10164000012B00F09680012384F83C3023681A684F
:1016500012F0010F03D11A6842F001021A602268E9
:10166000136823F400631360212384F83D301023B2
:1016700084F83E3000232364C4F824806785A3F5F2
:101680008033E362638D23852B460A9A31462046D8
:10169000FFF7BEFD064660B1236C042B04D1002386
:1016A00084F83C300126BAE7002384F83C30032656
:1016B000B5E70023039323685A6903929B69039358
:1016C000039B10E0236C042B55D12268136843F46C
:1016D000007313600126A2E72A460A992046FFF705
:1016E000ACFE00282BD1238D002B32D02A460A993C
:1016F0002046FFF77BFE0028E4D1636A5A1C626231
:1017000022681B781361638D013B9BB26385238D37
:10171000013B9BB223852268516911F0040FDBD095
:10172000002BD9D0636A591C61621B781361638DE9
:10173000013B9BB26385238D013B2385CCE7236C62
:10174000042B1AD12268136843F400731360012636
:1017500065E72268136843F400731360202384F85C
:101760003D30002384F83E3084F83C3057E70226B1
:1017700055E7022653E7032651E703264FE700BF4C
:10178000020010002DE9F04186B004460E46904656
:101790001F46FFF72FFB94F83D30DBB2202B04D01F
:1017A0000226304606B0BDE8F081054600901923B8
:1017B00001228C492046FFF7AFFC002840F04B8106
:1017C00094F83C30012B00F04881012384F83C3030
:1017D00023681A6812F0010F03D11A6842F001025F
:1017E0001A602268136823F400631360222384F8CC
:1017F0003D30102384F83E3000232364C4F8248055
:101800006785A3F58033E362638D23852B460C9AAD
:1018100031462046FFF75AFD064660B1236C042B83
:1018200004D1002384F83C300126BAE7002384F871
:101830003C300326B5E7238D5BB9029323685A69D0
:1018400002929A690292029A1A6842F400721A602D
:101850007AE0012B0FD0022B1FD02268136843F4CB
:10186000806313600023059323685A6905929B697E
:101870000593059B68E02268136823F48063136076
:101880000023039323685A6903929A690392039A87
:101890001A6842F400721A6056E02268136823F452
:1018A000806313602268136843F4006313600023AD
:1018B000049323685A6904929B690493049B43E050
:1018C0002A460C992046FFF7DFFD68B923681A699C
:1018D000636A591C61621A70238D013B2385638DF5
:1018E000013B9BB263852FE0236C202B01D00126A6
:1018F00057E7032655E700950C9B00223A492046FE
:10190000FFF70AFC002840F0AA802268136843F41D
:101910000073136023681A69636A591C61621A7044
:10192000238D013B2385638D013B9BB26385236837
:101930001A69636A591C61621A70238D013B238501
:10194000638D013B9BB26385238D002B7AD0032BE3
:101950004CD8012BB4D0022BCDD000950C9B00228B
:1019600021492046FFF7D8FB00287AD12268136866
:1019700023F48063136023681A69636A591C6162E7
:101980001A70238D013B2385638D013B9BB26385D8
:1019900000950C9B002214492046FFF7BDFB002850
:1019A00061D12268136843F40073136023681A69D5
:1019B000636A591C61621A70238D013B2385638D14
:1019C000013B9BB2638523681A69636A591C616293
:1019D0001A70238D013B2385638D013B9BB2638588
:1019E000B2E700BF02001000040001002A460C9973
:1019F0002046FFF749FDF0B923681A69636A591C4C
:101A000061621A70238D013B2385638D013B9BB27C
:101A1000638523685A6912F0040F95D01A69636AC6
:101A2000591C61621A70238D013B2385638D013B34
:101A30009BB2638588E7236C202B01D00126B0E69A
:101A40000326AEE6202384F83D30002384F83E30A0
:101A500084F83C30A5E60226A3E60226A1E603268A
:101A60009FE603269DE603269BE600BF002800F0C4
:101A7000BB8170B582B00446036813F0010F3BD000
:101A8000A74B9B6803F00C03042B2CD0A44B9B6842
:101A900003F00C03082B21D06368B3F5803F4FD0CF
:101AA000B3F5A02F52D09E4B1A6822F480321A60F0
:101AB0001A6822F480221A606368002B50D0FFF766
:101AC00099F90546964B1B6813F4003F14D1FFF7B4
:101AD00091F9401B6428F5D903208AE1904B5B689B
:101AE00013F4800FD8D08E4B1B6813F4003F03D043
:101AF0006368002B00F07A81236813F0020F55D041
:101B0000874B9B6813F00C0F3ED0854B9B6803F00E
:101B10000C03082B33D0E368002B68D0814B0122E3
:101B20001A60FFF767F905467D4B1B6813F0020F3B
:101B300054D1FFF75FF9401B0228F5D9032058E183
:101B4000774A136843F480331360B5E7744B1A681F
:101B500042F480221A601A6842F480321A60ABE7BD
:101B6000FFF748F905466E4B1B6813F4003FC3D0DE
:101B7000FFF740F9401B6428F5D9032039E1684B91
:101B80005B6813F4800FC6D1654B1B6813F0020F1E
:101B900004D0E368012B01D001202AE1604A1368D8
:101BA00023F0F803216943EAC1031360236813F0AB
:101BB000080F40D0636963B35B4B01221A60FFF7E3
:101BC00019F90546564B5B6F13F0020F33D1FFF73F
:101BD00011F9401B0228F5D903200AE1504A136885
:101BE00023F0F803216943EAC1031360DEE74D4B9C
:101BF00000221A60FFF7FEF80546494B1B6813F0F8
:101C0000020FD3D0FFF7F6F8401B0228F5D90320C6
:101C1000EFE0454B00221A60FFF7ECF80546404B19
:101C20005B6F13F0020F06D0FFF7E4F8401B0228A9
:101C3000F5D90320DDE0236813F0040F79D0384B89
:101C40001B6C13F0805F33D100230193344B1A6C6B
:101C500042F080521A641B6C03F080530193019B85
:101C60000125324B1B6813F4807F23D0A368012B1E
:101C700034D0052B38D02A4B1A6F22F001021A6794
:101C80001A6F22F004021A67A368002B36D0FFF700
:101C9000B1F80646224B1B6F13F0020F48D1FFF735
:101CA000A9F8801B41F288339842F3D90320A0E0C1
:101CB0000025D6E71D4A136843F480731360FFF7CD
:101CC00099F80646194B1B6813F4807FCED1FFF7B5
:101CD00091F8801B0228F5D903208AE0104A136F7F
:101CE00043F001031367CFE70D4B1A6F42F0040274
:101CF0001A671A6F42F001021A67C5E7FFF77AF810
:101D00000646074B1B6F13F0020F11D0FFF772F856
:101D1000801B41F288339842F3D9032069E000BF69
:101D20000038024000004742800E474200700040E9
:101D3000E5B9A369002B5BD0304A926802F00C022F
:101D4000082A58D0022B17D02D4B00221A60FFF71B
:101D500051F80446294B1B6813F0007F42D0FFF76F
:101D600049F8001B0228F5D9032042E0234A136CEE
:101D700023F080531364DCE7214B00221A60FFF745
:101D800039F805461D4B1B6813F0007F06D0FFF79E
:101D900031F8401B0228F5D903202AE0E369226AC2
:101DA0001343626A43EA8213A26A5208013A43EA81
:101DB0000243E26A43EA0263104A5360104B012275
:101DC0001A60FFF717F804460C4B1B6813F0007FEE
:101DD00006D1FFF70FF8001B0228F5D9032008E011
:101DE000002006E0002004E001207047012000E010
:101DF000002002B070BD0120FBE700BF00380240A8
:101E000060004742324B9B6803F00C03042B5CD00C
:101E1000082B01D02F4870472DE9F04B2C4B5A6806
:101E200002F03F025B6813F4800F2BD0284B5B68F5
:101E3000C3F388131E4600275C010025E41A65EBF6
:101E40000705A90141EA9461A001001B61EB0501AE
:101E5000CB0043EA5073C400A01943EB07014B02C7
:101E600043EAD0534402204619460023FEF79EFD64
:101E7000174B5B68C3F3014301335B00B0FBF3F026
:101E8000BDE8F08B124B5B68C3F388131E46002736
:101E90005C010025E41A65EB0705A90141EA94619C
:101EA000A001001B61EB0501CB0043EA5073C400A5
:101EB000A01943EB07018B0243EA905384022046AA
:101EC00019460023FEF772FDD2E70348704700BFB2
:101ED000003802400024F40000127A00002800F0CC
:101EE0009D8070B504464F4B1B6803F00F038B4277
:101EF00009D2CBB24B4A1370136803F00F038B4225
:101F000001D0012070BD236813F0020F17D013F029
:101F1000040F04D0444A936843F4E0539360236869
:101F200013F0080F04D0404A936843F46043936071
:101F30003D4A936823F0F003A068034393600D4685
:101F4000236813F0010F32D06368012B21D09A1E51
:101F5000012A25D9344A126812F0020F60D03249A2
:101F60008A6822F0030213438B60FEF743FF0646A4
:101F70002D4B9B6803F00C036268B3EB820F16D005
:101F8000FEF738FF801B41F288339842F0D90320D6
:101F9000B8E7254A126812F4003FE0D10120B1E70A
:101FA000214A126812F0007FD9D10120AAE71D4B07
:101FB0001B6803F00F03AB4209D9EAB2194B1A7040
:101FC0001B6803F00F03AB4201D001209AE723689E
:101FD00013F0040F06D0144A936823F4E053E16829
:101FE0000B439360236813F0080F07D00E4A9368E1
:101FF00023F46043216943EAC1039360FFF702FFC2
:10200000094B9B68C3F30313084AD35CD840084BC1
:1020100018600020FEF7A4FE002073E7012070473F
:1020200001206FE7003C024000380240DC34000829
:1020300008000020014B1868704700BF080000200E
:1020400008B5FFF7F7FF044B9B68C3F38223034AED
:10205000D35CD84008BD00BF00380240EC34000813
:1020600008B5FFF7E7FF044B9B68C3F34233034A0D
:10207000D35CD84008BD00BF00380240EC340008F3
:102080002DE9F843044601680A6922F44052C36806
:1020900013430B610168CA6822F4164222F00C0255
:1020A00083680069034360690343E06903431343A2
:1020B000CB6021684A6922F44072A36913434B61E3
:1020C000E369B3F5004F60D02368B84A934200F04B
:1020D000148102F58062934200F00F81FFF7B0FF98
:1020E00000EB800000EB80006568AD00B0FBF5F50B
:1020F000AF4FA7FB05356D092E01FFF7A1FF00EBE0
:10210000800000EB80006568AD00B0FBF5F9FFF7DB
:1021100097FF00EB800000EB80006568AD00B0FB2E
:10212000F5F5A7FB05356D094FF0640808FB15951B
:102130002D013235A7FB05356D0905F0F005354455
:10214000FFF77EFF00EB800000EB80006668B600C2
:10215000B0FBF6F6FFF774FF00EB800000EB8000A9
:1021600063689B00B0FBF3F0A7FB0030400908FB5D
:1021700010684FEA081808F13208A7FB0837C7F3C0
:10218000431723682F449F600DE12368874A9342D9
:102190005BD002F58062934257D0FFF751FF00EB0E
:1021A000800000EB800065686D00B0FBF5F5804FA6
:1021B000A7FB05356D092E01FFF742FF00EB8000FC
:1021C00000EB800065686D00B0FBF5F9FFF738FFA4
:1021D00000EB800000EB800065686D00B0FBF5F55A
:1021E000A7FB05356D094FF0640808FB1595ED0058
:1021F0003235A7FB05356D096D0005F4F8753544DA
:10220000FFF71EFF00EB800000EB800066687600A1
:10221000B0FBF6F6FFF714FF00EB800000EB800048
:1022200063685B00B0FBF3F3A7FB03235B0908FBC8
:1022300013684FEAC80808F13208A7FB0837C7F34C
:10224000421723682F449F60ADE0FFF709FF00EBC2
:10225000800000EB800065686D00B0FBF5F5544F21
:10226000A7FB05356D092E01FFF7FAFE00EB800094
:1022700000EB800065686D00B0FBF5F9FFF7F0FE3C
:1022800000EB800000EB800065686D00B0FBF5F5A9
:10229000A7FB05356D094FF0640808FB1595ED00A7
:1022A0003235A7FB05356D096D0005F4F875354429
:1022B000FFF7D6FE00EB800000EB8000666876003A
:1022C000B0FBF6F6FFF7CCFE00EB800000EB8000E1
:1022D00063685B00B0FBF3F3A7FB03235B0908FB18
:1022E00013684FEAC80808F13208A7FB0837C7F39C
:1022F000421723682F449F6055E0FFF7B1FE00EBC3
:10230000800000EB80006568AD00B0FBF5F5284F5C
:10231000A7FB05356D092E01FFF7A2FE00EB80003B
:1023200000EB80006568AD00B0FBF5F9FFF798FEA3
:1023300000EB800000EB80006568AD00B0FBF5F5B8
:10234000A7FB05356D094FF0640808FB15952D01B5
:102350003235A7FB05356D0905F0F0053544FFF76B
:102360007FFE00EB800000EB80006668B600B0FBEB
:10237000F6F6FFF775FE00EB800000EB8000636867
:102380009B00B0FBF3F0A7FB0030400908FB10688E
:102390004FEA081808F13208A7FB0837C7F34317BC
:1023A00023682F449F60BDE8F88300BF0010014000
:1023B0001F85EB512DE9F04105460F46164698461C
:1023C000069C2B681B6837EA03030CBF012300231C
:1023D000B3421DD1B4F1FF3FF3D02CB1FEF70AFD9B
:1023E000A0EB0800A042ECD92A68D36823F4D0738C
:1023F000D3602A68536923F001035361202385F8D1
:10240000393085F83A30002385F83830032000E071
:102410000020BDE8F08158B310B5044690F839307B
:102420000BB3242384F839302268D36823F4005393
:10243000D3602046FFF724FE2268136923F49043FB
:1024400013612268536923F02A0353612268D36819
:1024500043F40053D3600020E063202384F8393034
:1024600084F83A3010BD80F8383000F075FBD8E7BA
:10247000012070472DE9F04182B01E4690F83930B6
:10248000DBB2202B55D104460D469046002955D08D
:10249000002A55D090F83830012B53D0012380F812
:1024A00038300023C363212380F83930FEF7A2FCC3
:1024B0000746A4F82480A4F8268010E000963B4646
:1024C000002280212046FFF775FF00283CD12B8891
:1024D0002268C3F3080353602369C3B90235E38C50
:1024E0009BB2B3B1E38C013B9BB2E384A368B3F529
:1024F000805FE3D000963B46002280212046FFF714
:1025000059FF18BB2A7823685A600135E7E701357F
:10251000E5E700963B46002240212046FFF74AFFB0
:102520000346A8B9202284F83920002284F83820F4
:1025300000E00223184602B0BDE8F0810123F9E76C
:102540000123F7E70223F5E70323F3E70323F1E78A
:102550000323EFE72DE9F04F8DB000240194794B70
:102560001A6B42F010021A631A6B02F01002019209
:10257000019A02941A6B42F004021A631A6B02F079
:1025800004020292029A03941A6B42F080021A63C8
:102590001A6B02F080020392039A04941A6B42F0C1
:1025A00001021A631A6B02F001020492049A059464
:1025B0001A6B42F002021A631A6B02F002020592D1
:1025C000059A06941A6B42F008021A631B6B03F01B
:1025D00008030693069B224608215B48FEF781FD0F
:1025E000012211465948FEF77CFDDFF86C81224636
:1025F0004FF440414046FEF774FD22464FF2100171
:102600005348FEF76EFD08250795012608960994A4
:102610000A9407A94C48FEF779FC07960896099496
:102620000A9407A94948FEF771FC07950225089509
:1026300009940A944FF00509CDF82C9007A9434856
:10264000FEF764FC0796DFF814A1CDF820A00994EA
:10265000404F07A93846FEF759FC10230793089509
:1026600009940A944FF0060BCDF82CB007A9384610
:10267000FEF74CFCE0230793089509940A94CDF8E3
:102680002C9007A93846FEF741FC43F20403079358
:102690000894099407A94046FEF738FC4FF480637C
:1026A0000793089509940A94CDF82C9007A9404601
:1026B000FEF72CFC4FF440430793089609940A94C4
:1026C00007A94046FEF722FC4FF210030793089635
:1026D00009940A9407A91E48FEF718FC4FF4A45366
:1026E0000793089509940A94CDF82CB007A91748C8
:1026F000FEF70CFC4FF4007307930894099407A9A4
:102700003846FEF703FC4FF4E0530793089509940D
:102710000A940A230B9307A93846FEF7F7FB2023F8
:1027200007930894099407A90948FEF7EFFB07955A
:10273000CDF820A0099407A90348FEF7E7FB0DB0E8
:10274000BDE8F08F0038024000100240000802404F
:10275000000C024000000240000402400000121081
:1027600008B5322807DC01224FF480410648FEF705
:10277000B8FC002008BD00224FF480410248FEF75B
:10278000B0FC0120F6E700BF0004024008B54FF49A
:1027900080510A48FEF79EFC012807D000224FF422
:1027A00000410748FEF79DFC002008BD01224FF4C0
:1027B00000410348FEF795FC0120F6E7000C0240BB
:1027C0000004024008B54FF480510348FEF782FC34
:1027D000012800D0002008BD0004024008B54FF4D5
:1027E00000510348FEF776FC012800D0002008BD08
:1027F0000004024010B50446FFF7F0FFB8B1002214
:102800004FF400511648FEF76CFC2046FFF7A8FF76
:1028100030B100224FF480511148FEF762FC15E000
:1028200001224FF480510E48FEF75BFC0EE00122BE
:102830004FF400510A48FEF754FCFFF7C3FF40B9BC
:1028400000224FF480510648FEF74BFCFFF79EFF35
:1028500010BD01224FF480510148FEF742FCF5E71C
:10286000000C0240FEE7000008B50B480B4B03606C
:102870004FF4E133436000238360C36003610C22A3
:1028800042618361C361FFF7C6FD00B908BD40F234
:1028900029110348FFF7E6FFF00000200044004044
:1028A000F434000808B50C480C4B03600C4B436033
:1028B00000238360C3604FF48042026143618361FF
:1028C000C3610362FEF70EFE00B908BD4FF48B71C1
:1028D0000448FFF7C7FF00BF9C00002000540040E1
:1028E000A0860100F434000800B595B000230193E0
:1028F0002A4A116C41F080511164126C02F080522E
:102900000192019A0293264A116841F480411160B4
:10291000126802F480420292029A02220892012175
:102920000B9110210C910E920F93082310933223D8
:102930001193042312930723139308A8FFF796F823
:1029400018BB0F23039302230493002105914FF436
:10295000C05306934FF4A053079303A8FFF7BEFAA2
:10296000B8B9FFF767FB0F4BA3FB00308009FEF7F8
:10297000A1FA0420FEF7B4FA002211464FF0FF300E
:10298000FEF764FA15B05DF804FBEA210648FFF78C
:1029900069FFF8210448FFF765FF00BF00380240D7
:1029A00000700040D34D6210F434000870B586B05A
:1029B000FEF7FAF9FFF798FFFFF7CCFDFFF754FF9A
:1029C000FFF770FF0F20FEF71BFA02238DF80C3083
:1029D00000238DF80D308DF80E306423009303230F
:1029E00003AA46211E48FEF70BFE06AC102304F88E
:1029F0000C3D1B4E6425009501232246462130469E
:102A0000FEF7FEFDC820FEF7FBF9009502232246E3
:102A100046213046FEF7B6FE9DF80C009DF80D30BD
:102A200043EA0020FDF726FD4FF033320D4BFDF752
:102A3000B5FEFDF79BFF0646FFF7DCFEFFF7CEFE77
:102A4000034632460849204600F02AF92046FEF7A0
:102A50002DF92B4682B221460448FFF70BFDC4E74F
:102A60009C0000203333F33F04350008F0000020C1
:102A700010B582B000240094214B5A6C42F480427D
:102A80005A645A6C02F480420092009A01941A6CC3
:102A900042F080521A641B6C03F080530193019B37
:102AA0000720FEF7C1F9224621466FF00B00FEF722
:102AB000CDF9224621466FF00A00FEF7C7F92246FB
:102AC00021466FF00900FEF7C1F9224621466FF05A
:102AD0000400FEF7BBF9224621466FF00300FEF723
:102AE000B5F9224621466FF00100FEF7AFF9224604
:102AF00021464FF0FF30FEF7A9F902B010BD00BF2C
:102B0000003802400268114B9A4200D0704710B55D
:102B100086B04FF4107301931223029301230393A1
:102B200000240494042305930DEB03010848FEF7E9
:102B3000EDF90094074B1A6C42F400121A641B6CF6
:102B400003F400130093009B06B010BD0054004036
:102B500000040240003802400268114B9A4200D043
:102B6000704700B587B0002300930E4B1A6C42F4F7
:102B700000321A641B6C03F400330093009B0C2397
:102B80000193022302930123039303230493072356
:102B9000059301A90448FEF7B9F907B05DF804FBF5
:102BA00000440040003802400000024008B5FEF733
:102BB00015F9FEF7A6F908BD0F49D1F8883043F49E
:102BC0007003C1F888300D4B1A6842F001021A6098
:102BD000002098601A6822F0847222F480321A6011
:102BE000074A5A601A6822F480221A60D8604FF0AF
:102BF00000638B60704700BF00ED00E000380240CA
:102C000010300024DFF834D0002103E00C4B5B5877
:102C1000435004310B480C4B42189A42F6D30B4AEE
:102C200002E0002342F8043B094B9A42F9D3FFF734
:102C3000C3FF00F011F8FFF7B9FE70470000022053
:102C400054350008000000207000002070000020B3
:102C500034010020FEE7000070B50D4E0D4CA41BA2
:102C6000A4100025A54209D10B4E0C4C00F02AFC03
:102C7000A41BA4100025A54205D170BD56F825302F
:102C800098470135EEE756F8253098470135F2E7C9
:102C90004C3500084C3500084C350008503500080C
:102CA0000EB400B59CB01DAB029006906FF00041D1
:102CB000094807910491094953F8042B05910068CC
:102CC000019302A900F066F8029B00221A701CB062
:102CD0005DF804EB03B070470C0000200802FFFF12
:102CE0002DE9F0478E689E4282460C4690469946F2
:102CF00037D88A8912F4906F31D0256809696F1A24
:102D00006569022305EB450595FBF3F509F1010320
:102D10003B449D4238BF1D46530530D5294600F03F
:102D200029FB064650B90C23CAF80030A38943F0AA
:102D30004003A3814FF0FF30BDE8F0873A46216998
:102D400000F0A6FAA38923F4906343F08003A381E3
:102D5000266165613E44ED1B2660A5604E464E45EA
:102D600000D94E4632464146206800F09CFAA368DE
:102D70009B1BA36023681E4426600020DCE72A46D4
:102D800000F052FB06460028E2D12169504600F0CF
:102D9000A3FAC8E72DE9F04F9DB0804603938B89D5
:102DA0001D060C4616460FD50B696BB9402100F085
:102DB000E1FA2060206128B90C23C8F800304FF0F8
:102DC000FF30C7E0402363610023099320238DF87F
:102DD000293030238DF82A304FF0010B37463D461D
:102DE00015F8013B0BB1252B3ED1B7EB060A0BD0F2
:102DF0005346324621464046FFF772FF013000F04D
:102E0000A480099B534409933B78002B00F09D80DC
:102E100000234FF0FF32CDE90523049307938DF88B
:102E200053301A932F46052217F8011B4F48FDF720
:102E300047FF049BD0B9D90644BF20228DF8532008
:102E40001A0744BF2B228DF853202A782A2A15D03E
:102E5000079A2F4600200A25394611F8013B303BDE
:102E6000092B4DD9B8B10FE02F46B8E73F4A801A79
:102E70000BFA00F0184304903D46D3E7039A111D66
:102E800012680391002A01DB079204E0524243F0EA
:102E90000203079204933B782E2B0CD17B782A2BCC
:102EA00033D1039B1A1D1B680392002BB8BF4FF050
:102EB000FF33023705932E4D397803222846FDF75C
:102EC000FFFE38B14023401B03FA00F0049B03438C
:102ED00001370493397827488DF8281006227E1C84
:102EE000FDF7EEFE002838D0234B13BB039B0733BE
:102EF00023F0070308330393099B4B4409936DE7C1
:102F000005FB023201200F46A6E700230137059397
:102F100019460A25384610F8012B303A092A03D9F8
:102F2000002BC8D00591C6E705FB01210123074608
:102F3000F0E703AB00932246104B04A94046AFF3E1
:102F40000080B0F1FF3F8146D6D1A3895B063FF5F3
:102F500036AF09981DB0BDE8F08F03AB0093224651
:102F6000064B04A9404600F081F8EAE71035000856
:102F7000163500081A35000800000000E12C000892
:102F80002DE9F04791461F468A680B69DDF82080DD
:102F90009342B8BF1346C9F8003091F84320064663
:102FA0000C4612B10133C9F800302368990642BFBC
:102FB000D9F800300233C9F80030256815F006054D
:102FC00007D104F1190AE368D9F800209B1AAB4233
:102FD00028DC94F843302268003318BF012392069E
:102FE0002DD404F1430239463046C047013020D089
:102FF0002368E568D9F8002003F00603042B08BF16
:10300000AD1AA36822690CBF25EAE5750025934235
:10301000C4BF9B1AED184FF000091A344D451AD160
:10302000002008E00123524639463046C0470130AF
:1030300003D14FF0FF30BDE8F0870135C3E7E11859
:103040005A1C302081F84300224494F8451082F83D
:1030500043100233C5E70123224639463046C047B4
:103060000130E6D009F10109D8E700002DE9F0436D
:1030700001F1430C0C46097E85B06E2917460646C1
:1030800098460C9A00F0B38022D8632936D00AD82B
:10309000002900F0B980582900F0838004F142052E
:1030A00084F8421032E0642901D06929F6D1206801
:1030B0001368050603F104012AD51B681160002B73
:1030C00003DA2D225B4284F843206F480A2239E05C
:1030D000732900F09D8008D86F2920D07029DDD198
:1030E000236843F02003236003E0752917D0782973
:1030F000D4D1782384F84530644855E01368191D0D
:103100001B68116004F1420584F8423001238CE011
:103110001B68116010F0400F18BF1BB2CFE7136897
:103120002568181D1060280601D51B6802E0680696
:10313000FBD51B8854486F2914BF0A22082200219E
:1031400084F843106568A560002DC0F29580216861
:1031500021F004012160002B3DD1002D40F08E8034
:103160006546082A0BD12368DB0708D52369626806
:103170009A42DEBF302305F8013C05F1FF35ACEB88
:1031800005032361CDF800803B4603AA2146304663
:10319000FFF7F6FE01304DD14FF0FF3005B0BDE82E
:1031A000F083394884F84510136821681D1D1B6899
:1031B00015600A060BD5CA0744BF41F02001216003
:1031C0001BB9226822F0200222601022B7E74D06C8
:1031D00048BF9BB2EFE76546B3FBF2F102FB113348
:1031E000C35C05F8013D0B460029F5D1B9E713682A
:1031F00025686169181D106028061B6801D51960D3
:1032000002E06A06FBD51980002323616546B9E711
:103210001368191D11601D68626800212846FDF7BA
:103220004FFD08B1401B606063682361002384F890
:103230004330A7E723692A4639463046C047013064
:10324000AAD023689B0713D4E068039B9842B8BFB9
:103250001846A3E701234A4639463046C0470130A5
:103260009AD00135E368039A9B1AAB42F2DCEBE794
:10327000002504F11909F5E7002BACD1037884F897
:10328000423004F142056CE7213500083235000870
:1032900010B5431E0A44914200D110BD11F8014BF4
:1032A00003F8014FF7E7884210B501EB020307D896
:1032B000421E99420AD011F8014B02F8014FF8E77B
:1032C0008342F5D98118D21AD34200D110BD13F828
:1032D000014D01F8014DF7E738B50546002945D005
:1032E00051F8043C0C1F002BB8BFE41800F0D2F8D2
:1032F0001F4A1368104633B9636014602846BDE85E
:10330000384000F0C8B8A3420CD921686218934233
:1033100004BF1A685B68636004BF521822600460CF
:10332000ECE713465A680AB1A242FAD9196858184C
:10333000A0420BD120680144581882421960DDD1A7
:10334000106852685A6001441960D7E702D90C230B
:103350002B60D3E7206821188A4204BF11685268A5
:10336000626004BF091821605C60C7E738BD00BF18
:103370008C00002070B5CD1C25F0030508350C2D00
:1033800038BF0C25002D064601DBA94203D90C23CA
:103390003360002070BD00F07DF8214A146821469A
:1033A00091B9204C23681BB9304600F063F82060C7
:1033B0002946304600F05EF8431C24D10C233360CC
:1033C000304600F068F8E4E70B685B1B18D40B2B61
:1033D0000FD90B60CD50CC18304600F05CF804F1EA
:1033E0000B00231D20F00700C31AD3D05A42E2502D
:1033F000D0E78C424B6816BF636013600C46EBE766
:103400000C464968CCE7C41C24F00304A04205D054
:10341000211A304600F02EF80130CFD02560DBE7CE
:103420008C00002090000020F8B5074614460E4698
:1034300021B91146BDE8F840FFF79CBF22B9FFF75C
:103440004BFF25462846F8BD00F026F8A0420FD2D3
:1034500021463846FFF78EFF05460028F2D0314658
:103460002246FFF715FF31463846FFF735FFE9E7FB
:103470003546E7E738B5064C002305460846236085
:1034800000F012F8431C02D1236803B12B6038BD51
:10349000300100207047704751F8043C181F002B82
:1034A000BCBF0B58C0187047044A05491368002B6D
:1034B00008BF0B461844106018467047940000205F
:1034C00038010020F8B500BFF8BC08BC9E46704724
:0C34D000F8B500BFF8BC08BC9E46704771
:1034DC0000000000000000000102030406070809B8
:1034EC0000000000010203042E2E2F5372632F6D77
:1034FC0061696E2E630000002564202564206C75C4
:10350C00780D0A00232D302B2000686C4C0065666A
:10351C006745464700303132333435363738394118
:10352C00424344454600303132333435363738392E
:08353C00616263646566000032
:0835440098D4FF7F0100000094
:04354C00B5010008BD
:0435500091010008DD
:1035540001000000100000000024F400100000200E
:103564000000000000000000000000000000000057
:103574000000000000000000000000000000000047
:103584000000000000000000000000000000000037
:103594000000000000000000000000000000000027
:1035A4000000000000000000000000000000000017
:1035B4000000000000000000000000000000000007
:0400000508002C05BE
:00000001FF
